:020000040800F2
:10000000E8040020A10100081F1F0008CF1A000803
:100010001D1F0008B1030008212500080000000092
:100020000000000000000000000000002721000880
:10003000B303000800000000411F00082921000848
:10004000BB010008BB010008BB010008BB010008A0
:10005000BB010008BB010008BB010008BB01000890
:10006000BB010008BB010008B5030008BB01000884
:10007000BB010008BB010008BB010008BB01000870
:10008000BB010008BB010008BB010008BB01000860
:10009000BB010008BB010008BB010008BB0300084E
:1000A000BB010008BB010008BB010008BB01000840
:1000B0002D2200080000000000000000BB01000825
:1000C000BB0100080000000000000000BB010008A8
:1000D00000000000BB010008BB0100080000000098
:1000E000BB010008BB010008000000000000000088
:1000F0000000000000000000000000000000000000
:10010000000000000000000000000000BB0100082B
:100110000000000000000000BB010008BB01000857
:10012000BB010008BB010008BB010008BB010008BF
:10013000BB010008000000000000000000000000FB
:10014000BB010008BB010008BB010008BB0100089F
:10015000BB010008BB010008BB010008BB0100088F
:10016000BB010008BB010008BB0100080000000043
:10017000BB010008BB0100080000000000000000F7
:10018000BB010008BB010008BB010008DFF80CD070
:1001900000F018F80048004741250008E804002056
:1001A0000648804706480047FEE7FEE7FEE7FEE711
:1001B000FEE7FEE7FEE7FEE7FEE7FEE7E9210008CF
:1001C0008D010008064C074D06E0E06840F0010391
:1001D00094E8070098471034AC42F6D3FFF7DAFFF3
:1001E000D0250008F025000810B504462121322052
:1001F00000F0AAF800F00C0222432121BDE81040D3
:10020000322000F0B7B810B5C2B22021322000F081
:10021000B1F800222321BDE81040322000F0AAB836
:100220002DE9FF410646002401252321322000F05C
:100230008BF807462421322000F086F8282132204E
:1002400000F082F88DF800002921322000F07CF8BF
:100250008DF801002A21322000F076F88DF8020096
:100260002B21322000F070F88DF803002C21322071
:1002700000F06AF88DF804002D21322000F064F8B7
:100280008DF805007A06694602A810D401EB4402F5
:1002900092F9003092F901201204120A03FA82F254
:1002A00020F81420641CE4B2032CEFD30FE001EB20
:1002B000440292F9013092F900201204120A03FA62
:1002C00082F220F81420641CE4B2032CEFD317F060
:1002D000300106D0102906D0202906D0302907D1B8
:1002E00005E0012504E0022502E0042500E00C25DC
:1002F0005FF0000130F8112012FB05F226F8112002
:10030000491CC9B20329F5D300F000B803BCBDE80D
:10031000FC81000010B50B4800246421018089B2E3
:10032000491E0904090C0180F9D100F03DF844F0A0
:10033000470040F40060FFF766FFBDE810409020E2
:10034000FFF752BF000000201FB50A4601460020FB
:100350008DF80C004FF48034012303A88DE81900B8
:10036000034800F07FFA9DF80C0004B010BD0000B7
:10037000340000201FB513460A4601468DF80C30A4
:100380004FF48034012303A88DE81900014800F0E0
:100390001DFB1FBD340000201CB500200090019003
:1003A0006846FFF73DFF1CBD0F213220FFF7CCBF91
:1003B000FEE77047102000F0C3B810B5202000F011
:1003C000BFF8402000F0BCF8802000F0B9F8BDE88C
:1003D00010404FF4807000F0B3B870B5040003D043
:1003E00094F8200010B104E0012070BD204600F018
:1003F00081F82068016821F00201016000F07AF9BB
:100400000546052604E000F075F9401B0A2811D8BE
:10041000206840688007F6D42068016841F0010137
:10042000016000F067F905460BE000F063F9401B3E
:100430000A2806D9606A40F40030606284F82060BF
:10044000D2E720684068C007EFD0207E01282068EE
:1004500001683DD021F080010160607E01282068A4
:10046000016838D021F040010160A07E0128206899
:10047000016833D021F020010160E07E012820686E
:1004800001682ED041F010010160207F0128206812
:10049000016829D021F008010160607F01282068EF
:1004A000016824D021F004010160D4E9020108436D
:1004B000D4E90412114308436168491E08432168C6
:1004C000C86100206062012084F82000002070BD17
:1004D00041F08001C0E741F04001C5E741F0200153
:1004E000CAE721F01001CFE741F00801D4E741F05D
:1004F0000401D9E700B500680E4987B0884217D1DA
:100500000D48816D41F000718165806D694600F094
:10051000007005904FF4C050009002200190002020
:1005200002900320039009200490C00600F014F804
:1005300007B000BD0064004000100240704700009A
:10054000044910B50A68024202D00860FFF7F6FFBE
:1005500010BD0000140401402DE9F84FDFF870B120
:10056000002301274FF0030A4FF00F090BF1040E8F
:10057000A7E000BF07FA03F6324070D04C68022CA7
:1005800001D0122C10D1DC0800EB8408D8F82040F0
:100590005D074FEAD56C09FA0CF5AC430D6905FA15
:1005A0000CF52543C8F82050D0F800805D0091F884
:1005B00004C00AFA05F40CF0030C28EA04080CFA4B
:1005C00005FC4CEA080CC0F800C0D1F804C0BCF12E
:1005D000010F08D0BCF1020F05D0BCF1110F02D001
:1005E000BCF1120F16D1D0F808C0D1F80C802CEA5B
:1005F000040C08FA05F848EA0C08C0F80880D0F89E
:1006000004C02CEA060C0E79C6F300169E4046EA9A
:100610000C064660C668A6438C68AC403443C46090
:100620004C68E4004CD52B4C256E45F00105256641
:10063000246E23F0030504F001040094264C2E19C7
:10064000B4689D074FEA157C09FA0CF5AC43B0F18C
:10065000904F05D0214DA84204D1012508E02FE09C
:10066000002505E01E4DA84201D1022500E0072526
:1006700005FA0CF52543B560DBF800405D464E6891
:100680009443F60300D514432C60DEF80040754611
:100690004E689443B60300D514432C600C4D0835C6
:1006A0002C684E689443F60200D514432C60084D24
:1006B0000C352C684E689443B60200D514432C6068
:1006C0005B1C0A6832FA03F47FF454AF00F00AB8F6
:1006D00000040140001002400000014000040048F6
:1006E0000008004818BCBDE8E08F0AB1816170477E
:1006F00081627047014800687047000004000020D4
:1007000090F84120202A24D190F84020012A20D0BE
:10071000012280F84020242280F8412002681368DA
:1007200023F0010313600268136823F480531360FD
:10073000026813680B43136001680A6842F0010203
:100740000A60202180F84110002180F840100846FE
:1007500070470220704790F84120202A22D190F85B
:100760004020012A1ED0012280F84020242280F857
:1007700041200268136823F00103136002681368C4
:1007800023F4706343EA0121116001680A6842F0B2
:1007900001020A60202180F84110002180F84010F9
:1007A000084670470220704770B5040004D094F8E2
:1007B0004100002528B109E04FF400706064012079
:1007C00070BD84F84050204600F0B0F9242084F831
:1007D00041002068016821F0010101606068216822
:1007E00020F0706008612068816821F40041816018
:1007F000E0680128A06807D040F4044021688860C0
:10080000E068022803D006E040F40040F6E72168E3
:100810004FF40060486020684168114A114341600C
:100820002068C16821F40041C160D4E90401084393
:10083000A16940EA01202168C860D4E907010843A2
:10084000216808602068016841F001010160656469
:10085000202084F84100256384F84250002070BDB8
:10086000008000022DE9FF4F83B00446DDE91087C8
:1008700090F84100DDF848909A469346202873D1BD
:100880005FEA080014D09FB194F8400001286BD0B3
:10089000012084F84000FFF72DFF0646012200905A
:1008A0001923D103204601F0E1F9002870D103E0BB
:1008B0004FF4007060646BE0222084F84100402017
:1008C00084F8420000256564C4F824806785656368
:1008D000CDE9009653465A462046049901F04CF95A
:1008E00010B184F8405053E0618D3448FF274FF039
:1008F00080784FF0007AFF2904D927853A4643468D
:10090000009005E0618D2185009094F828205346E1
:100910002046049901F094F94B4600220421204618
:10092000009601F0A3F998BB2068416A606A421CF6
:1009300062620170208D401E81B22185608D401E53
:100940006085608DD8B1D1B94B4600228021204608
:10095000009601F08BF9D8B9608DFF2805D927855D
:100960003A464346009506E026E0608D20850095D6
:1009700094F8282053462046049901F061F9608DCF
:100980000028C9D132464946204601F09BF918B1EA
:10099000012007B000F016B821682020C861216846
:1009A0004A68074B1A404A6084F8410084F8425074
:1009B00084F840500020ECE70220EAE700240080A1
:1009C00000E800FE30BCBDE8C08F00002DE9FF4FFD
:1009D00083B00446DDE9108790F84100DDF84890C7
:1009E0009A469346202870D15FEA080014D09FB140
:1009F00094F84000012868D0012084F84000FFF7F7
:100A000079FE0646012200901923D103204601F009
:100A10002DF900286DD103E04FF40070606468E0A8
:100A2000212084F84100402084F8420000256564BC
:100A3000C4F8248067856563CDE9009653465A461D
:100A40002046049901F0CAF810B184F8405050E0F3
:100A5000608DFF274FF080784FF0007AFF2804D98F
:100A600027853A464346009505E0608D2085009530
:100A700094F8282053462046049901F0E1F83246C4
:100A80004946204601F044F998BB606A411C616206
:100A9000216800788862608D401E6085208D401E30
:100AA00080B22085618DD9B1D0B94B46002280211A
:100AB0002046009601F0DAF8D8B9608DFF2805D9F4
:100AC00027853A464346009506E026E0608D20855E
:100AD000009594F8282053462046049901F0B0F878
:100AE000608D0028CBD132464946204601F0EAF815
:100AF00018B1012007B000F015B821682020C861A6
:100B000021684A68064B1A404A6084F8410084F81C
:100B1000425084F840500020ECE70220EAE7000051
:100B200000E800FE30BCBDE8C08F000000B50068E2
:100B30000F4987B0884218D14FF4C060009012204E
:100B40000190012002900320039004200490694644
:100B50004FF09040FFF700FD0648816D41F4001111
:100B60008165806D00F40010059007B000BD0000A5
:100B7000005400400010024002480168491C016016
:100B8000704700000400002010B5032000F088F832
:100B9000002000F005F800F017F8002010BD00005C
:100BA00010B5044607484FF47A710068B0FBF1F0C5
:100BB00000F0F8FD00222146501E00F051F8002000
:100BC00010BD0000080000201E4808B5016E41F06D
:100BD00001010166016E01F001010091816D41F09A
:100BE00080518165806D00F080500090032000F0FE
:100BF00057F8002211466FF00B0000F031F8002288
:100C000011466FF00A0000F02BF8002211466FF039
:100C1000090000F025F800221146501F00F020F8CE
:100C200000221146101F00F01BF800221146901EF2
:100C300000F016F80022BDE808401146501E00F0F2
:100C40000FB800000010024000F01F020121914087
:100C50004009800000F1E020C0F80011704700005A
:100C6000F0B40E4B1B680C46C3F30223C3F1070517
:100C7000042D00D90425191D072901D2002300E005
:100C8000DB1E012606FA05F1491E214099409E40CF
:100C9000761E16403143F0BC01F042B90CED00E085
:100CA000064900F0070208684FF6FF03184040EAC3
:100CB0000220034A10430860704700000CED00E07A
:100CC0000000FA051549B0F5007F0868C0F341201F
:100CD00009D0022805D0086820F4C06040F4806084
:100CE0000860002070470128FBD0086820F4C0602D
:100CF00040F4007008600A480A4A0068B0FBF2F04D
:100D00003222504300E0401E10B14A695205FAD425
:100D100048694005E5D50320704700000070004099
:100D20000800002040420F000248006800F4C06044
:100D300070470000007000400248016841F4807173
:100D400001607047007000400248016841F00401F2
:100D500001607047001002402DE9F84F044600275B
:100D600000889C4D3E46000515D5E06B60B1B0F59E
:100D7000000F04D0B0F5400F2BD001270AE0E8683F
:100D800040F48030E86024E00021201D01F0DAF812
:100D900007001ED03E462068800338D5A86D4FF06E
:100DA0000008C00009D4A86D40F08050A865A86D67
:100DB0004FF0010800F080500090DFF81CA2DAF834
:100DC000001041F48071CAF80010FFF793FC8146CF
:100DD00010E0D5F88800E16B20F440000843C5F826
:100DE0008800D8E7FFF786FCA0EB0900022801D9AC
:100DF000032704E0DAF80000C005F3D5EFB33E4660
:100E0000B8F1000F03D0A86D20F08050A8652078BD
:100E1000C00707D0D5F88800216A20F003000843F6
:100E2000C5F888002078800707D5D5F88800616A62
:100E300020F00C000843C5F888002078800607D50C
:100E4000D5F88800A16A20F440600843C5F88800FE
:100E50002088800507D5D5F88800616B20F44020F4
:100E60000843C5F888002088400509D5D5F88800D2
:100E7000A16B20F44010084300E02EE0C5F8880084
:100E80002078400607D5D5F88800E16A20F4405064
:100E90000843C5F888002088C00507D5D5F8880024
:100EA000216B20F440300843C5F8880020884FF0BB
:100EB000006780044FF080684ED5D5F88800216C1B
:100EC00020F040600843C5F88800206CB8423BD150
:100ED000E86840F48010E8603EE0D5F8900010F437
:100EE000407014D0216D814211D0D5F89000D5F812
:100EF000901020F4407041F48031C5F89010D5F87E
:100F0000901021F48031C5F89010C5F89000C0070A
:100F100011D0FFF7EFFB074641F2883907E000BF29
:100F2000FFF7E8FBC11B494501D9032668E7D5F85F
:100F300090008007F4D5D5F89000216D20F4407022
:100F40000843C5F890005BE7404505D10121201D0D
:100F500000F0F8FF00B106462068400317D5D5F829
:100F60008800616C20F040600843C5F88800606C20
:100F7000B84204D1E86840F48010E86007E04045DA
:100F800005D10121201D00F0DDFF00B106462088BB
:100F9000400411D5D5F88800A16C20F040500843DA
:100FA000C5F88800A06CB0F1805F05D10221201D3A
:100FB00000F0C8FF00B106462088000406D555F8A9
:100FC000880FE16C20F0804008432860304600F034
:100FD00005B80000001002400070004018BCBDE8D9
:100FE000E08F00002DE9F0470F46050058D03E4E37
:100FF000306800F00700B84209D2306820F00700DE
:1010000038433060306800F00700B84248D1287893
:10101000364CC0072CD06868032811D0022812D0A3
:10102000216898B1490500293ADAA16821F0030145
:101030000143A160FFF75EFB804641F2883910E072
:1010400021688901EFE721688903ECE78907EAE76E
:10105000FFF750FBA0EB0801494502D90320BDE88A
:10106000F087A068696800F00C00B0EB810FEFD149
:101070002878800705D5A068A96820F0F00008430B
:10108000A060306800F00700B8420BD9306820F04B
:10109000070038433060306800F00700B84201D0E4
:1010A0000120DCE72878400705D5A068E96820F42E
:1010B000E0600843A0602878000706D5A068296989
:1010C00020F4605040EAC100A06000F01BF8A16865
:1010D000074AC1F30311515CC8400649086000206B
:1010E000FFF75EFD0020BAE700200240001002403A
:1010F00090250008080000200148006870470000A3
:101100000800002030B52D49002318468A682C4C71
:1011100012F00C0F4FEA640514D08A68C2F3810202
:10112000032A04D1CA6802F00302012A0AD08A689D
:10113000C2F38102012A19D08A68C2F38102022A0D
:1011400016D016E00A68120704D4D1F89420C2F32E
:10115000032202E00A68C2F303121A4B53F822304A
:101160008A6812F00C0F04D1184602E0204600E015
:1011700028468A68C2F38102032A1DD1C868CA685A
:1011800000F00300C2F30212521C022804D003280C
:1011900005D0B3FBF2F004E0B4FBF2F001E0B5FBE4
:1011A000F2F0CA68C968C2F306225043C1F3416134
:1011B000491C4900B0FBF1F030BD000000100240B6
:1011C0000024F400A02500082DE9F84304007DD098
:1011D0002078FE4DC0065DD5A86810F00C0F0AD02F
:1011E000A0690028286873D040F001002860FFF74C
:1011F00081FA064655E02868800702D5A0690028D4
:10120000E5D0216A2868000703D5286800F0F000BF
:1012100004E0D5F89400F02202EA1010814216D9B9
:10122000084600F025FF002850D1286840F008004B
:1012300028602868216A20F0F00008432860686868
:10124000E16920F47F4040EA0120686015E02868E9
:1012500040F0080028602868216A20F0F000084368
:1012600028606868E16920F47F4040EA01206860F6
:10127000206A00F0FDFE0028D6D1FFF743FFA968E1
:10128000D34AC1F30311515CC840D2490860002021
:10129000FFF786FC2CE000BFFFF72CFA801B02282A
:1012A0007ED828688007F7D5286840F008002860B5
:1012B0002868216A20F0F000084328606868E16926
:1012C00020F47F4040EA0120686011E0B2E0FFE7CF
:1012D00020F001002860FFF70DFA064605E000BF88
:1012E000FFF708FA801B0228DAD828688007F7D4AD
:1012F0002078C00748D0A868C0F3810002281DD01C
:10130000A868C0F38100032803D1E868C0438007C0
:1013100014D06068B0F5803F17D0B0F5A02F2868D2
:1013200017D020F480302860286820F480202860BE
:101330006068E0B1FFF7DEF9064614E02868800334
:1013400022D56068002875D01EE0286840F48030FF
:10135000EDE740F480202860F7E700BFFFF7CAF907
:10136000801B64289CD828688003F7D50CE0FFF721
:10137000C1F9064605E000BFFFF7BCF9801B6428F1
:101380008ED828688003F7D42078800742D5A868D3
:10139000C0F38100012816D0A868C0F3810000E0E6
:1013A000CEE0032804D1E86800F0030002280AD048
:1013B000E068002828681DD040F480702860FFF79E
:1013C00099F906460BE0286840050BD5E06800282F
:1013D000B9D007E0FFF78EF9801B022884D828686F
:1013E0004005F7D56868217C20F0F85040EA01609C
:1013F00068600FE020F480702860FFF77BF90646F4
:1014000005E000BFFFF776F9801B0228AAD82868FC
:101410004005F7D42078000729D560690028D5F861
:10142000940013D040F00100C5F89400FFF762F972
:10143000064606E01DE100BFFFF75CF9801B0228AD
:101440007ED8D5F894008007F6D510E020F0010092
:10145000C5F89400FFF74EF9064604E0FFF74AF995
:10146000801B02286CD8D5F894008007F6D4207829
:10147000400761D5A86D0026C00008D4A86D40F0D3
:101480008050A865A86D012600F080500090524859
:101490000168C90511D40168804641F4807101607A
:1014A000FFF728F9074604E0FFF724F9C01B0228DC
:1014B00046D8D8F80000C005F6D5A068012815D098
:1014C0000528D5F8900016D020F00100C5F890004E
:1014D000D5F8900020F00400C5F89000A06841F213
:1014E0008838B8B1FFF706F907460EE0D5F8900046
:1014F00040F00100F0E740F00400C5F89000F5E787
:10150000FFF7F8F8C11B41451AD8D5F890008007BD
:10151000F6D50CE0FFF7EEF8074604E0FFF7EAF82F
:10152000C11B41450CD8D5F890008007F6D41EB1F8
:10153000A86D20F08050A8652078800629D500E0AD
:1015400089E0606A0028D5F8980011D040F00100C9
:10155000C5F89800FFF7CEF8064604E0FFF7CAF892
:10156000801B02287DD8D5F898008007F6D510E0BA
:1015700020F00100C5F89800FFF7BCF8064604E02B
:10158000FFF7B8F8801B02286BD8D5F898008007C1
:10159000F6D4A06AC8B1A968C1F38101032968D053
:1015A0000228286820F08070286019D0286800017F
:1015B00003D4E86820F00300E860E86807490840C1
:1015C000E860FFF797F804464EE050E00010024054
:1015D000902500080800002000700040FFFFEEFE8C
:1015E000FFF788F8064604E0FFF784F8801B02281E
:1015F00037D828688001F7D4206B54F82C1F0001DD
:1016000010380843218A1C4A490802EB4151A2685C
:1016100041EA02210843217D4FF07E42490802EB56
:1016200041610843217B40EAC160E860286840F0DE
:1016300080702860E86840F08070E860FFF75AF832
:10164000044604E0FFF756F8001B022809D8286872
:101650008001F7D50BE004E0FFF74CF8001B0228EF
:1016600002D90320BDE8F88328688001F4D4002063
:10167000F8E70120F6E700000000E0FF70B5040085
:1016800003D094F8210010B107E0012070BD0020C4
:1016900084F82000204600F04DF8022084F8210054
:1016A0002168CA204862216853204862204600F021
:1016B0001DFDFF25042618BB206881681C4A1140C7
:1016C0008160216888686268A369104322691A43AF
:1016D000104388602168E0680861206801692289F8
:1016E00041EA024101612068C16821F08001C160C6
:1016F00020688068800608D4204600F02BF820B1CE
:101700002068456284F82160BFE72068C16C21F041
:101710000301C1646169E06908432168CA6C104330
:10172000C86420684562012084F82100002070BD53
:10173000BFFF8FFF00680549884205D1044850F873
:10174000901F41F4004101607047000000280040F4
:101750000010024070B504460068C16821F0A00185
:10176000C160FEF7C7FF05464FF47A7607E000BF79
:10177000FEF7C0FF401BB04201D9032070BD2068B6
:10178000C0688006F4D5002070BD4FF0E021042829
:10179000086903D020F004000861704740F004009D
:1017A000FAE7704710B5401EB0F1807F01D30120E9
:1017B00010BD4FF0E02460610F21601700F0B0FB16
:1017C0000020A06107202061002010BD10B5FFF7A8
:1017D000E8FF10BD704770477047000070B590F883
:1017E0003C20012A21D0012480F83C40022280F8CC
:1017F0003D2003685A689D680D4EB34203D122F420
:1018000070064A68324322F070060A6889683243DB
:1018100025F0800529435A600268916080F83D40B8
:10182000002180F83C10084670BD022070BD000009
:10183000002C0140704770B50446006801694FF004
:101840000005C943890715D4C168C943890711D464
:10185000E91E016101202077206880698007204609
:1018600002D0FFF7E7FF04E000F0F6F8204600F0B2
:101870002BF9257720680169C943490717D4C16846
:10188000C943490713D46FF0040101610220207796
:101890002068806910F4407F204602D0FFF7CAFF1D
:1018A00004E000F0D9F8204600F00EF92577206812
:1018B0000169C943090716D4C168C943090712D48D
:1018C0006FF008010161042020772068C06980075B
:1018D000204602D0FFF7AEFF04E000F0BDF820463E
:1018E00000F0F2F8257720680169C943C90617D4CA
:1018F000C168C943C90613D46FF010010161082003
:1019000020772068C06910F4407F204602D0FFF79E
:1019100091FF04E000F0A0F8204600F0D5F825770C
:1019200020680169C943C90708D1C168C943C9070B
:1019300004D1891E0161204600F0C7F820680169C2
:10194000C943090609D4C168C943090605D46FF023
:10195000800101612046FFF73EFF20680169C9430D
:10196000C90509D4C168C943090605D46FF480715B
:1019700001612046FFF72EFF20680169C94349062F
:1019800009D4C168C943490605D46FF0400101611B
:10199000204600F09BF820680169C94389060BD4F2
:1019A000C168C943890607D46FF020010161204650
:1019B000BDE87040FFF710BF70BD00B5006885B08E
:1019C000B0F1804F0DD10F20009002200190002037
:1019D000029003900120049069464FF09040FEF77A
:1019E000BBFD05B000BD70B5044690F83C00012871
:1019F0000ED0012584F83C50022084F83D000C2ACA
:101A000019D007DC5AB1042A0DD0082A1ED10EE0E5
:101A1000022070BD102A12D0142A17D113E02068BA
:101A200000F040FC12E0206800F078FC0EE0206836
:101A300000F0B0FC0AE0206800F0E6FC06E0206858
:101A400000F012FD02E0206800F03CFD84F83D50FB
:101A5000002084F83C0070BD704710B5040003D02E
:101A600094F83D0010B107E0012010BD002084F87B
:101A70003C00204600F00CF8022084F83D00211DB7
:101A8000206800F0D9FB012084F83D00002010BD43
:101A900008B50068B0F1804F12D10A48816D41F05D
:101AA00001018165806D002200F001000090114667
:101AB0001C20FFF7D5F8BDE808401C20FFF7C4B88C
:101AC00008BD000000100240704770477047FEE7F5
:101AD00001688A69D243920701D400228A620068B1
:101AE0008169C943C90703D0816941F0010181615E
:101AF000704700002DE9F0410446006890460E460C
:101B00008069C043C00633D400252027206880693F
:101B1000C043800615D5701CF8D0FEF7EBFDA0EB96
:101B20000800B04201D8002EF0D154F8440F40F024
:101B3000200044F804096770A57025700120BDE8F5
:101B4000F08121681020C8612068C7612046FFF736
:101B5000BFFF54F8440B4168064A114041602068B9
:101B600040F0040044F820096777A5772577E5E77A
:101B70000020E4E700E800FE2DE9F843044616469D
:101B8000DDE9089714489846DAB200900023204611
:101B900000F056F83A464946204600F0B9F8B8B980
:101BA000F5B2B8F1010F08D02168300A88623A46D0
:101BB0004946204600F0ACF850B9206885624B4693
:101BC000002240212046009700F050F8002800D065
:101BD0000120BDE8F8830000002000802DE9F843D3
:101BE0000446164615489846DDE90897DAB2C3025E
:101BF0000090204600F024F83A464946204600F07E
:101C000087F8B8B9F5B2B8F1010F08D02168300AE9
:101C100088623A464946204600F07AF850B9206872
:101C200085624B46002280212046009700F01EF876
:101C3000002800D00120BDE8F883000000200080CB
:101C4000F0B50568059C68684FF48066064FC1F3DF
:101C5000090106EA545641EA02413E431943B043A2
:101C6000214308436860F0BDFF63FF032DE9F041A5
:101C70001D4617460E460446DDF8188008E0681C2D
:101C800006D0FEF737FDA0EB0800A8420BD855B1EF
:101C90002068806936EA000012D00020B842EED0F9
:101CA0000020BDE8F08154F8440F40F0200044F8D3
:101CB0000409202060700020A07020700120F0E74F
:101CC0000120EBE770B516460D4604460DE032469E
:101CD00029462046FFF70EFF08B1012070BDFEF730
:101CE00009FD801BA84207D835B120688069C04330
:101CF0008006ECD4002070BD54F8440F40F0200062
:101D000044F80409202060700020A0702070E4E7EF
:101D100070B516460D4604460FE032462946204669
:101D2000FFF7E8FE08B1012070BD681C05D0FEF782
:101D3000E1FC801BA84207D835B120688069C04308
:101D40008007EAD4002070BD54F8440F40F0200012
:101D500044F80409202060700020A0702070E2E7A1
:101D60000C4810B50A4901601021416000218160D2
:101D7000C16001614161017641768176C17601776A
:101D80004177FEF72AFB002800D0FEE710BD0000D7
:101D9000006400400C00002030B5284887B0C16CBA
:101DA00041F00401C164C16C01F004010591C16CF2
:101DB00041F00101C164C16C01F001010591C16CE8
:101DC00041F00201C164C06C1D4D00F0020005909D
:101DD000002220212846FEF788FC4FF4F87000907E
:101DE00018480024CDE9010469464FF09040FEF701
:101DF000B3FB5820CDE90004694628460294FEF75B
:101E0000ABFB202000900120CDE901046946284663
:101E10000394FEF7A1FB002211460A20FEF720FFE3
:101E20000A20FEF711FF002211461720FEF718FFC7
:101E30001720FEF709FF07B030BD00000010024078
:101E40000004004800001110114810B50F4901604E
:101E50001049416000210122C0E902120161416183
:101E60008161C1610162FEF79FFC00B1FEE70021C4
:101E70000748FEF745FC00B1FEE700210448FEF7E5
:101E80006AFC002800D0FEE710BD000000540040AE
:101E9000340000205D3E302010B51F488AB04FF05E
:101EA00080410024C0E900144FF49651C0E902417A
:101EB00004618461FFF7D1FD00B1FEE7079407A933
:101EC00015480994FFF78AFC00B1FEE700940194DD
:101ED00002940022694610480494FFF784FD00B183
:101EE000FEE7042269460C48FFF77DFD00B1FEE7DE
:101EF000082269460848FFF776FD00B1FEE70C228C
:101F000069460548FFF76FFD00B1FEE70248FFF79D
:101F100054FD0AB010BD0000A4000020FEE7704789
:101F20000907090E002806DA00F00F0000F1E02092
:101F300080F8141D704700F1E02080F8001470470D
:101F4000704700002DE9F041444C05468846E068A2
:101F50000026810728680DD0E16801F00301814265
:101F600016D1A8B1E0686968C0F30210401C88422D
:101F70000ED120E0012804D0022805D0032807D183
:101F800008E02168890701E021684905002907DB8D
:101F900001265FE02168890302D421684903F5E73F
:101FA000E1686A686FF00F0321F0730103EB02121E
:101FB00011430143E160206820F080602060FEF75B
:101FC00099FB074605E000BFFEF794FBC01B022803
:101FD00037D820680001F7D4B8F1000F18D0B8F155
:101FE000010F1DD0287D4FF07E41400801EB40607D
:101FF000A96840EA01202169194A1140084320617B
:10200000206840F080602060FEF774FB07461AE00D
:10201000A868297B000240EAC1602169114AECE707
:10202000288A1149400801EB4050A96840EA012084
:1020300021690E4AE1E700BFFEF75CFBC01B0228E6
:1020400001D9032606E020680001F5D52069A969B9
:10205000084320613046BDE8F081000000100240D6
:10206000FF80FFF9FF80FF070000E0FFFF809FFF78
:10207000F8B51C4D06460024A86DC00002D5FEF739
:1020800053FE0DE0A86D40F08050A865A86D00F0EB
:1020900080500090FEF748FEA96D21F08051A9659F
:1020A000B0F5007F04D0802E07D94FF003040AE07A
:1020B000802E08D9A02E01D804E001D1022402E02C
:1020C000702E00D101240848016821F00701214346
:1020D0000160006800F00700A04201D00120F8BDB7
:1020E0000020F8BD001002400020024070B50446F8
:1020F0000068C168490614D44FF0FF31C160FEF793
:10210000F9FA05464FF47A7607E000BFFEF7F2FAD7
:10211000401BB04201D9032070BD2068C068400652
:10212000F4D5002070BD704710B5FEF725FDBDE861
:102130001040FFF74BBB000010B5ACB0FEF7FCFD44
:10214000274850F8901F21F0180101601C200090D2
:10215000012002900590002460210690CDE90741FE
:102160000221CDE90A100C9018200D900720CDE92E
:102170000E0168461091FFF727F800B1FEE70F2027
:1021800026900320CDE927042994022126A82A9429
:10219000FEF728FF00B1FEE712481C9411900412CC
:1021A00011A82594FEF7D8FD00B1FEE72046FEF702
:1021B00089FD00B1FEE7FEF79FFF4FF47A71B0FB97
:1021C000F1F0FFF7EFFA0420FFF7DFFAFEF7BCFDAE
:1021D00000221146501EFEF743FD2CB010BD00003A
:1021E00000100240400002000D48016841F47001F7
:1021F00001600C48016841F001010160002181602B
:102200000268094B1A4002608214C260026822F41C
:102210008022026081610249C003803908607047F2
:1022200088ED00E000100240FFFFF6EA0148FFF7EA
:1022300002BB0000A400002070B50268164B4FF0EE
:102240008046984201D0B04203D122F070044A681F
:102250002243124C124D984205D0B04203D0A04206
:1022600001D0A84203D122F44076CA6832434E69B5
:1022700022F08002324302608A68C2620A68826287
:10228000984203D0A04201D0A84201D1096901635C
:102290000121416170BD0000002C0140004001405F
:1022A00000440140F0B5026A22F001020262056AB0
:1022B00043688269154C25F0020522400C6822F023
:1022C000030214438A68134E2A43114D124FA84249
:1022D00003D0B04201D0B84206D122F0080CCA683F
:1022E00042EA0C0222F00402A84203D0B04201D01C
:1022F000B84205D14D6923F440731D438B692B43CC
:1023000043608461496841630262F0BD8FFFFEFF54
:10231000002C0140004001400044014030B5026AF9
:1023200022F010020262046A42688369154D2B4054
:102330000D6823F4407343EA052524F020038C68DC
:1023400043EA0413104CA04207D1CC6823F0800369
:1023500043EA041323F0400305E00C4CA04202D0F2
:102360000B4CA04207D14C6922F4406242EA84023D
:102370008C6942EA84024260856149688163036234
:1023800030BD0000FF8FFFFE002C014000400140E7
:102390000044014030B5026A22F480720262046A8D
:1023A0004268C369144D2B400D6823F003031D439D
:1023B00024F400738C6843EA0423104CA04207D134
:1023C000CC6823F4006343EA042323F4806305E02C
:1023D0000B4CA04202D00B4CA04207D14C6922F416
:1023E000405242EA04128C6942EA04124260C5611A
:1023F0004968C163036230BD8FFFFEFF002C0140BE
:10240000004001400044014030B5026A22F480528D
:102410000262046A4268C3690F4D24F400542B40E1
:102420000D6823F4407343EA05238D6844EA0534BC
:102430000A4DA84205D00A4DA84202D0094DA84233
:1024400004D14D6922F4804242EA85124260C361A0
:1024500049680164046230BDFF8FFFFE002C01401B
:10246000004001400044014030B5026A22F480324D
:102470000262046A4268436D0E4D2B400D681D4395
:1024800024F400330C8943EA04430B4CA04205D0EA
:102490000A4CA04202D00A4CA04204D14C6922F45A
:1024A000803242EA042242604565496881650362E0
:1024B00030BD00008FFFFEFF002C014000400140B6
:1024C0000044014030B5026A22F480120262046ABC
:1024D0004268436D0E4D24F400142B400D6843EA0E
:1024E00005230D8944EA05540A4DA84205D00A4D3A
:1024F000A84202D0094DA84204D14D6922F480229D
:1025000042EA8522426043654968C165046230BD84
:10251000FF8FFFFE002C01400040014000440140BD
:10252000FEE702E008C8121F08C1002AFAD170476E
:102530007047002001E001C1121F002AFBD1704743
:10254000FEF722FBFFF7F8FDFFF726FCFFF708FC7C
:10255000FFF77AFCFFF7A0FC0C480B497F220160D3
:102560000021C0E90112FF22C0E90321416181611C
:10257000C161FFF783F800B1FEE7FDF7CBFE00BFB6
:10258000FDF70AFFFCE70000002800408000002063
:102590000000000000000000010203040607080913
:1025A000A0860100400D0300801A060000350C00D3
:1025B00040420F0080841E0000093D0000127A0096
:1025C0000024F40000366E010048E801006CDC02D3
:1025D000F0250008000000200C0000002225000863
:1025E000FC2500080C000020DC0400003225000857
:0C25F000000000000000000000093D0099
:040000050800018D61
:00000001FF
